{
  "contractName": "Resode",
  "abi": [
    {
      "anonymous": false,
      "inputs": [
        {
          "indexed": true,
          "internalType": "bytes32",
          "name": "categoryId",
          "type": "bytes32"
        },
        {
          "indexed": false,
          "internalType": "string",
          "name": "category",
          "type": "string"
        }
      ],
      "name": "CategoryCreated",
      "type": "event"
    },
    {
      "anonymous": false,
      "inputs": [
        {
          "indexed": true,
          "internalType": "bytes32",
          "name": "contentId",
          "type": "bytes32"
        },
        {
          "indexed": false,
          "internalType": "string",
          "name": "contentUri",
          "type": "string"
        }
      ],
      "name": "ContentAdded",
      "type": "event"
    },
    {
      "anonymous": false,
      "inputs": [
        {
          "indexed": true,
          "internalType": "bytes32",
          "name": "postId",
          "type": "bytes32"
        },
        {
          "indexed": true,
          "internalType": "address",
          "name": "postOwner",
          "type": "address"
        },
        {
          "indexed": false,
          "internalType": "bytes32",
          "name": "contentId",
          "type": "bytes32"
        },
        {
          "indexed": true,
          "internalType": "bytes32",
          "name": "parentPostId",
          "type": "bytes32"
        },
        {
          "indexed": false,
          "internalType": "bytes32",
          "name": "categoryId",
          "type": "bytes32"
        }
      ],
      "name": "PostCreated",
      "type": "event"
    },
    {
      "anonymous": false,
      "inputs": [
        {
          "indexed": true,
          "internalType": "bytes32",
          "name": "postId",
          "type": "bytes32"
        },
        {
          "indexed": true,
          "internalType": "address",
          "name": "postOwner",
          "type": "address"
        },
        {
          "indexed": true,
          "internalType": "address",
          "name": "voter",
          "type": "address"
        },
        {
          "indexed": false,
          "internalType": "uint80",
          "name": "reputationPostOwner",
          "type": "uint80"
        },
        {
          "indexed": false,
          "internalType": "uint80",
          "name": "reputationVoter",
          "type": "uint80"
        },
        {
          "indexed": false,
          "internalType": "int40",
          "name": "postVotes",
          "type": "int40"
        },
        {
          "indexed": false,
          "internalType": "bool",
          "name": "up",
          "type": "bool"
        },
        {
          "indexed": false,
          "internalType": "uint8",
          "name": "reputationAmount",
          "type": "uint8"
        }
      ],
      "name": "Voted",
      "type": "event"
    },
    {
      "inputs": [
        {
          "internalType": "bytes32",
          "name": "_categoryId",
          "type": "bytes32"
        },
        {
          "internalType": "bytes32",
          "name": "_parentPostId",
          "type": "bytes32"
        },
        {
          "internalType": "string",
          "name": "_contentUri",
          "type": "string"
        }
      ],
      "name": "createPost",
      "outputs": [],
      "stateMutability": "nonpayable",
      "type": "function"
    },
    {
      "inputs": [
        {
          "internalType": "bytes32",
          "name": "_postId",
          "type": "bytes32"
        },
        {
          "internalType": "uint8",
          "name": "_reputationChange",
          "type": "uint8"
        },
        {
          "internalType": "bool",
          "name": "_up",
          "type": "bool"
        }
      ],
      "name": "vote",
      "outputs": [],
      "stateMutability": "nonpayable",
      "type": "function"
    },
    {
      "inputs": [
        {
          "internalType": "string",
          "name": "_category",
          "type": "string"
        }
      ],
      "name": "addCategory",
      "outputs": [],
      "stateMutability": "nonpayable",
      "type": "function"
    },
    {
      "inputs": [
        {
          "internalType": "bytes32",
          "name": "_contentId",
          "type": "bytes32"
        }
      ],
      "name": "getContent",
      "outputs": [
        {
          "internalType": "string",
          "name": "",
          "type": "string"
        }
      ],
      "stateMutability": "view",
      "type": "function",
      "constant": true
    },
    {
      "inputs": [
        {
          "internalType": "bytes32",
          "name": "_categoryId",
          "type": "bytes32"
        }
      ],
      "name": "getCategory",
      "outputs": [
        {
          "internalType": "string",
          "name": "",
          "type": "string"
        }
      ],
      "stateMutability": "view",
      "type": "function",
      "constant": true
    },
    {
      "inputs": [
        {
          "internalType": "address",
          "name": "_address",
          "type": "address"
        },
        {
          "internalType": "bytes32",
          "name": "_categoryID",
          "type": "bytes32"
        }
      ],
      "name": "getReputation",
      "outputs": [
        {
          "internalType": "uint80",
          "name": "",
          "type": "uint80"
        }
      ],
      "stateMutability": "view",
      "type": "function",
      "constant": true
    },
    {
      "inputs": [
        {
          "internalType": "bytes32",
          "name": "_postId",
          "type": "bytes32"
        }
      ],
      "name": "getPost",
      "outputs": [
        {
          "internalType": "address",
          "name": "",
          "type": "address"
        },
        {
          "internalType": "bytes32",
          "name": "",
          "type": "bytes32"
        },
        {
          "internalType": "bytes32",
          "name": "",
          "type": "bytes32"
        },
        {
          "internalType": "bytes32",
          "name": "",
          "type": "bytes32"
        },
        {
          "internalType": "int72",
          "name": "",
          "type": "int72"
        }
      ],
      "stateMutability": "view",
      "type": "function",
      "constant": true
    }
  ],
  "bytecode": "0x608060405234801561001057600080fd5b5061195a806100206000396000f3fe608060405234801561001057600080fd5b506004361061007d5760003560e01c80635cc150011161005b5780635cc15001146100ea57806393e43bbe1461011a578063b2fae2721461014e578063d9cfa7de1461017e5761007d565b80631dcb11ec146100825780632e0dcbf71461009e578063473b084c146100ba575b600080fd5b61009c60048036038101906100979190610ea8565b61019a565b005b6100b860048036038101906100b39190610f1c565b610355565b005b6100d460048036038101906100cf9190610f69565b6103e4565b6040516100e1919061102f565b60405180910390f35b61010460048036038101906100ff9190610f69565b610489565b604051610111919061102f565b60405180910390f35b610134600480360381019061012f9190610f69565b61052e565b6040516101459594939291906110bd565b60405180910390f35b6101686004803603810190610163919061113c565b6105ea565b60405161017591906111a1565b60405180910390f35b6101986004803603810190610193919061122d565b61065b565b005b6000339050600083836040516020016101b49291906112bc565b60405160208183030381529060405280519060200120905060008286836040516020016101e393929190611349565b604051602081830303815290604052805190602001209050848460026000858152602001908152602001600020919061021d929190610d60565b508260008083815260200190815260200160002060000160006101000a81548173ffffffffffffffffffffffffffffffffffffffff021916908373ffffffffffffffffffffffffffffffffffffffff160217905550816000808381526020019081526020016000206001018190555085600080838152602001908152602001600020600201819055508660008083815260200190815260200160002060030181905550817ffb281bb05c5ef4b3a5f374fffc0b351fe69873776a9d6c289682e1929cb4f08086866040516102f29291906112bc565b60405180910390a2858373ffffffffffffffffffffffffffffffffffffffff16827fdd56be40fa15d802b8ddf46fb1480b3bef291828e21d8c168f8f96368716d7e4858b604051610344929190611386565b60405180910390a450505050505050565b6000828260405160200161036a9291906112bc565b60405160208183030381529060405280519060200120905082826001600084815260200190815260200160002091906103a4929190610d60565b50807f42588c2617ffb1b380decf15f2134bd59bb002295bda52fe6e5bf92fc504d24984846040516103d79291906112bc565b60405180910390a2505050565b6060600160008381526020019081526020016000208054610404906113de565b80601f0160208091040260200160405190810160405280929190818152602001828054610430906113de565b801561047d5780601f106104525761010080835404028352916020019161047d565b820191906000526020600020905b81548152906001019060200180831161046057829003601f168201915b50505050509050919050565b60606002600083815260200190815260200160002080546104a9906113de565b80601f01602080910402602001604051908101604052809291908181526020018280546104d5906113de565b80156105225780601f106104f757610100808354040283529160200191610522565b820191906000526020600020905b81548152906001019060200180831161050557829003601f168201915b50505050509050919050565b600080600080600080600087815260200190815260200160002060000160009054906101000a900473ffffffffffffffffffffffffffffffffffffffff1660008088815260200190815260200160002060010154600080898152602001908152602001600020600201546000808a8152602001908152602001600020600301546000808b815260200190815260200160002060040160009054906101000a900460040b8060040b90509450945094509450945091939590929450565b6000600360008473ffffffffffffffffffffffffffffffffffffffff1673ffffffffffffffffffffffffffffffffffffffff168152602001908152602001600020600083815260200190815260200160002060009054906101000a900469ffffffffffffffffffff16905092915050565b60003390506000806000868152602001908152602001600020600301549050600080600087815260200190815260200160002060000160009054906101000a900473ffffffffffffffffffffffffffffffffffffffff1690508073ffffffffffffffffffffffffffffffffffffffff168373ffffffffffffffffffffffffffffffffffffffff161415610723576040517f08c379a000000000000000000000000000000000000000000000000000000000815260040161071a9061145c565b60405180910390fd5b60001515600460008573ffffffffffffffffffffffffffffffffffffffff1673ffffffffffffffffffffffffffffffffffffffff168152602001908152602001600020600088815260200190815260200160002060009054906101000a900460ff161515146107c7576040517f08c379a00000000000000000000000000000000000000000000000000000000081526004016107be906114c8565b60405180910390fd5b6107d2838387610c84565b610811576040517f08c379a00000000000000000000000000000000000000000000000000000000081526004016108089061155a565b60405180910390fd5b831561091357600160008088815260200190815260200160002060040160008282829054906101000a900460040b61084991906115b6565b92506101000a81548164ffffffffff021916908360040b64ffffffffff1602179055508460ff16600360008373ffffffffffffffffffffffffffffffffffffffff1673ffffffffffffffffffffffffffffffffffffffff168152602001908152602001600020600084815260200190815260200160002060008282829054906101000a900469ffffffffffffffffffff166108e4919061162f565b92506101000a81548169ffffffffffffffffffff021916908369ffffffffffffffffffff160217905550610ab7565b600080600088815260200190815260200160002060040160009054906101000a900460040b60040b131561099757600160008088815260200190815260200160002060040160008282829054906101000a900460040b610973919061166f565b92506101000a81548164ffffffffff021916908360040b64ffffffffff1602179055505b8460ff16600360008373ffffffffffffffffffffffffffffffffffffffff1673ffffffffffffffffffffffffffffffffffffffff168152602001908152602001600020600084815260200190815260200160002060009054906101000a900469ffffffffffffffffffff1669ffffffffffffffffffff1610610ab6578460ff16600360008373ffffffffffffffffffffffffffffffffffffffff1673ffffffffffffffffffffffffffffffffffffffff168152602001908152602001600020600084815260200190815260200160002060008282829054906101000a900469ffffffffffffffffffff16610a8b91906116e8565b92506101000a81548169ffffffffffffffffffff021916908369ffffffffffffffffffff1602179055505b5b6001600460008573ffffffffffffffffffffffffffffffffffffffff1673ffffffffffffffffffffffffffffffffffffffff168152602001908152602001600020600088815260200190815260200160002060006101000a81548160ff0219169083151502179055508273ffffffffffffffffffffffffffffffffffffffff168173ffffffffffffffffffffffffffffffffffffffff16877f01d21e353645a36d22513edbfe86f2d524130c25320a11ed375056ea54b427af600360008673ffffffffffffffffffffffffffffffffffffffff1673ffffffffffffffffffffffffffffffffffffffff168152602001908152602001600020600087815260200190815260200160002060009054906101000a900469ffffffffffffffffffff16600360008973ffffffffffffffffffffffffffffffffffffffff1673ffffffffffffffffffffffffffffffffffffffff168152602001908152602001600020600088815260200190815260200160002060009054906101000a900469ffffffffffffffffffff166000808d815260200190815260200160002060040160009054906101000a900460040b8a8c604051610c74959493929190611749565b60405180910390a4505050505050565b600080600360008673ffffffffffffffffffffffffffffffffffffffff1673ffffffffffffffffffffffffffffffffffffffff168152602001908152602001600020600085815260200190815260200160002060009054906101000a900469ffffffffffffffffffff16905060028169ffffffffffffffffffff161015610d265760018360ff1614610d1a576000915081610d20565b60019150815b50610d58565b8069ffffffffffffffffffff16836002610d4091906118d9565b1115610d50576000915081610d56565b60019150815b505b509392505050565b828054610d6c906113de565b90600052602060002090601f016020900481019282610d8e5760008555610dd5565b82601f10610da757803560ff1916838001178555610dd5565b82800160010185558215610dd5579182015b82811115610dd4578235825591602001919060010190610db9565b5b509050610de29190610de6565b5090565b5b80821115610dff576000816000905550600101610de7565b5090565b600080fd5b600080fd5b6000819050919050565b610e2081610e0d565b8114610e2b57600080fd5b50565b600081359050610e3d81610e17565b92915050565b600080fd5b600080fd5b600080fd5b60008083601f840112610e6857610e67610e43565b5b8235905067ffffffffffffffff811115610e8557610e84610e48565b5b602083019150836001820283011115610ea157610ea0610e4d565b5b9250929050565b60008060008060608587031215610ec257610ec1610e03565b5b6000610ed087828801610e2e565b9450506020610ee187828801610e2e565b935050604085013567ffffffffffffffff811115610f0257610f01610e08565b5b610f0e87828801610e52565b925092505092959194509250565b60008060208385031215610f3357610f32610e03565b5b600083013567ffffffffffffffff811115610f5157610f50610e08565b5b610f5d85828601610e52565b92509250509250929050565b600060208284031215610f7f57610f7e610e03565b5b6000610f8d84828501610e2e565b91505092915050565b600081519050919050565b600082825260208201905092915050565b60005b83811015610fd0578082015181840152602081019050610fb5565b83811115610fdf576000848401525b50505050565b6000601f19601f8301169050919050565b600061100182610f96565b61100b8185610fa1565b935061101b818560208601610fb2565b61102481610fe5565b840191505092915050565b600060208201905081810360008301526110498184610ff6565b905092915050565b600073ffffffffffffffffffffffffffffffffffffffff82169050919050565b600061107c82611051565b9050919050565b61108c81611071565b82525050565b61109b81610e0d565b82525050565b60008160080b9050919050565b6110b7816110a1565b82525050565b600060a0820190506110d26000830188611083565b6110df6020830187611092565b6110ec6040830186611092565b6110f96060830185611092565b61110660808301846110ae565b9695505050505050565b61111981611071565b811461112457600080fd5b50565b60008135905061113681611110565b92915050565b6000806040838503121561115357611152610e03565b5b600061116185828601611127565b925050602061117285828601610e2e565b9150509250929050565b600069ffffffffffffffffffff82169050919050565b61119b8161117c565b82525050565b60006020820190506111b66000830184611192565b92915050565b600060ff82169050919050565b6111d2816111bc565b81146111dd57600080fd5b50565b6000813590506111ef816111c9565b92915050565b60008115159050919050565b61120a816111f5565b811461121557600080fd5b50565b60008135905061122781611201565b92915050565b60008060006060848603121561124657611245610e03565b5b600061125486828701610e2e565b9350506020611265868287016111e0565b925050604061127686828701611218565b9150509250925092565b82818337600083830152505050565b600061129b8385610fa1565b93506112a8838584611280565b6112b183610fe5565b840190509392505050565b600060208201905081810360008301526112d781848661128f565b90509392505050565b60008160601b9050919050565b60006112f8826112e0565b9050919050565b600061130a826112ed565b9050919050565b61132261131d82611071565b6112ff565b82525050565b6000819050919050565b61134361133e82610e0d565b611328565b82525050565b60006113558286611311565b6014820191506113658285611332565b6020820191506113758284611332565b602082019150819050949350505050565b600060408201905061139b6000830185611092565b6113a86020830184611092565b9392505050565b7f4e487b7100000000000000000000000000000000000000000000000000000000600052602260045260246000fd5b600060028204905060018216806113f657607f821691505b6020821081141561140a576114096113af565b5b50919050565b7f796f752063616e6e6f7420766f746520796f7572206f776e20706f7374730000600082015250565b6000611446601e83610fa1565b915061145182611410565b602082019050919050565b6000602082019050818103600083015261147581611439565b9050919050565b7f796f75206861766520616c726561647920766f746564207468697320706f7374600082015250565b60006114b2602083610fa1565b91506114bd8261147c565b602082019050919050565b600060208201905081810360008301526114e1816114a5565b9050919050565b7f796f7520646f6e2774206861766520656e6f7567682072657075746174696f6e60008201527f20746f20766f7465207468697320706f73740000000000000000000000000000602082015250565b6000611544603283610fa1565b915061154f826114e8565b604082019050919050565b6000602082019050818103600083015261157381611537565b9050919050565b60008160040b9050919050565b7f4e487b7100000000000000000000000000000000000000000000000000000000600052601160045260246000fd5b60006115c18261157a565b91506115cc8361157a565b925081647fffffffff038313600083121516156115ec576115eb611587565b5b817fffffffffffffffffffffffffffffffffffffffffffffffffffffff800000000003831260008312161561162457611623611587565b5b828201905092915050565b600061163a8261117c565b91506116458361117c565b92508269ffffffffffffffffffff0382111561166457611663611587565b5b828201905092915050565b600061167a8261157a565b91506116858361157a565b9250827fffffffffffffffffffffffffffffffffffffffffffffffffffffff8000000000018212600084121516156116c0576116bf611587565b5b82647fffffffff0182136000841216156116dd576116dc611587565b5b828203905092915050565b60006116f38261117c565b91506116fe8361117c565b92508282101561171157611710611587565b5b828203905092915050565b6117258161157a565b82525050565b611734816111f5565b82525050565b611743816111bc565b82525050565b600060a08201905061175e6000830188611192565b61176b6020830187611192565b611778604083018661171c565b611785606083018561172b565b611792608083018461173a565b9695505050505050565b60008160011c9050919050565b6000808291508390505b60018511156117f3578086048111156117cf576117ce611587565b5b60018516156117de5780820291505b80810290506117ec8561179c565b94506117b3565b94509492505050565b60008261180c57600190506118c8565b8161181a57600090506118c8565b8160018114611830576002811461183a57611869565b60019150506118c8565b60ff84111561184c5761184b611587565b5b8360020a91508482111561186357611862611587565b5b506118c8565b5060208310610133831016604e8410600b841016171561189e5782820a90508381111561189957611898611587565b5b6118c8565b6118ab84848460016117a9565b925090508184048111156118c2576118c1611587565b5b81810290505b9392505050565b6000819050919050565b60006118e4826118cf565b91506118ef836111bc565b925061191c7fffffffffffffffffffffffffffffffffffffffffffffffffffffffffffffffff84846117fc565b90509291505056fea2646970667358221220aa0413d5b9dc49652fb762539aa226aa24c2d45d583b248cd9d616e1806bdf2464736f6c634300080a0033",
  "immutableReferences": {},
  "source": "// SPDX-License-Identifier: MIT\npragma solidity >=0.4.22 <0.9.0;\n\ncontract Resode {\n    event PostCreated(\n        bytes32 indexed postId,\n        address indexed postOwner,\n        bytes32 contentId,\n        bytes32 indexed parentPostId,\n        bytes32 categoryId\n    );\n\n    event ContentAdded(bytes32 indexed contentId, string contentUri);\n\n    event Voted(\n        bytes32 indexed postId,\n        address indexed postOwner,\n        address indexed voter,\n        uint80 reputationPostOwner,\n        uint80 reputationVoter,\n        int40 postVotes,\n        bool up,\n        uint8 reputationAmount\n    );\n\n    event CategoryCreated(bytes32 indexed categoryId, string category);\n\n    struct Post {\n        address postOwner;\n        bytes32 contentId;\n        bytes32 parentPostId;\n        bytes32 categoryId;\n        int40 votes;\n    }\n\n    mapping(bytes32 => Post) postRegistry;\n    mapping(bytes32 => string) categoryRegistry;\n    mapping(bytes32 => string) contentRegistry; // array de urls a guardar en IPFS\n    mapping(address => mapping(bytes32 => uint80)) reputationRegistry; // cada address tiene una reputacion (uint80) en cada categora (bytes32)\n    mapping(address => mapping(bytes32 => bool)) voteRegistry; // cada address tiene un registro de cada postId al que vot\n\n    function createPost(\n        bytes32 _categoryId,\n        bytes32 _parentPostId,\n        string calldata _contentUri\n    ) external {\n        address _postOwner = msg.sender;\n        bytes32 _contentId = keccak256(abi.encode(_contentUri));\n        bytes32 _postId = keccak256(abi.encodePacked(_postOwner, _parentPostId, _contentId));\n        contentRegistry[_contentId] = _contentUri;\n        postRegistry[_postId].postOwner = _postOwner;\n        postRegistry[_postId].contentId = _contentId;\n        postRegistry[_postId].parentPostId = _parentPostId;\n        postRegistry[_postId].categoryId = _categoryId;\n        emit ContentAdded(_contentId, _contentUri);\n        emit PostCreated(_postId, _postOwner, _contentId, _parentPostId, _categoryId);\n    }\n\n    function validateReputationChange(\n        address _sender,\n        bytes32 _categoryId,\n        uint8 _reputationChange\n    ) internal view returns (bool _result) {\n        uint80 _reputation = reputationRegistry[_sender][_categoryId];\n\n        if (_reputation < 2) {\n            _reputationChange == 1 ? _result = true : _result = false;\n        } else {\n            2**_reputationChange <= _reputation ? _result = true : _result = false;\n        }\n    }\n\n    function vote(\n        bytes32 _postId,\n        uint8 _reputationChange,\n        bool _up\n    ) external {\n        address _voter = msg.sender;\n        bytes32 _categoryId = postRegistry[_postId].categoryId;\n        address _contributor = postRegistry[_postId].postOwner;\n        require(_voter != _contributor, 'you cannot vote your own posts');\n        require(voteRegistry[_voter][_postId] == false, 'you have already voted this post');\n        require(\n            validateReputationChange(_voter, _categoryId, _reputationChange),\n            \"you don't have enough reputation to vote this post\"\n        );\n\n        if (_up) {\n            postRegistry[_postId].votes += 1;\n            reputationRegistry[_contributor][_categoryId] += _reputationChange;\n        } else {\n            if (postRegistry[_postId].votes > 0) {\n                postRegistry[_postId].votes -= 1;\n            }\n\n            if (reputationRegistry[_contributor][_categoryId] >= _reputationChange) {\n                reputationRegistry[_contributor][_categoryId] -= _reputationChange;\n            }\n        }\n\n        voteRegistry[_voter][_postId] = true;\n        emit Voted(\n            _postId,\n            _contributor,\n            _voter,\n            reputationRegistry[_contributor][_categoryId],\n            reputationRegistry[_voter][_categoryId],\n            postRegistry[_postId].votes,\n            _up,\n            _reputationChange\n        );\n    }\n\n    function addCategory(string calldata _category) external {\n        bytes32 _categoryId = keccak256(abi.encode(_category));\n        categoryRegistry[_categoryId] = _category;\n        emit CategoryCreated(_categoryId, _category);\n    }\n\n    function getContent(bytes32 _contentId) public view returns (string memory) {\n        return contentRegistry[_contentId];\n    }\n\n    function getCategory(bytes32 _categoryId) public view returns (string memory) {\n        return categoryRegistry[_categoryId];\n    }\n\n    function getReputation(address _address, bytes32 _categoryID) public view returns (uint80) {\n        return reputationRegistry[_address][_categoryID];\n    }\n\n    function getPost(bytes32 _postId)\n        public\n        view\n        returns (\n            address,\n            bytes32,\n            bytes32,\n            bytes32,\n            int72\n        )\n    {\n        return (\n            postRegistry[_postId].postOwner,\n            postRegistry[_postId].contentId,\n            postRegistry[_postId].parentPostId,\n            postRegistry[_postId].categoryId,\n            postRegistry[_postId].votes\n        );\n    }\n}\n",
  "sourcePath": "/Users/Joa/Desktop/Dapps/Goldtooth/truffle/contracts/Resode.sol",
  "compiler": {
    "name": "solc",
    "version": "0.8.10+commit.fc410830.Emscripten.clang"
  },
  "schemaVersion": "3.4.3",
  "updatedAt": "2021-11-27T03:26:28.950Z",
  "networkType": "ethereum",
  "devdoc": {
    "kind": "dev",
    "methods": {},
    "version": 1
  },
  "userdoc": {
    "kind": "user",
    "methods": {},
    "version": 1
  }
}